{
  "transactions": [
    {
      "hash": "0x3554a071d4dbfde2a013187b7d00b75ce96f6760de7ca9e8d599ef0386d3b428",
      "transactionType": "CALL",
      "contractName": "LendingPool",
      "contractAddress": "0x159f82bfbbc4d5f7c962b5c4667eca0004030eda",
      "function": "deposit()",
      "arguments": [],
      "transaction": {
        "from": "0xfe213cdfb20ad296433f44bdcf7c2b79aeaf4710",
        "to": "0x159f82bfbbc4d5f7c962b5c4667eca0004030eda",
        "gas": "0x18f50",
        "value": "0xb1a2bc2ec50000",
        "input": "0xd0e30db0",
        "nonce": "0x4",
        "chainId": "0x61"
      },
      "additionalContracts": [],
      "isFixedGasLimit": false
    },
    {
      "hash": "0xc25f35305a8c45ad280f83f625c9b6a6127135e97d9fa23b5ef1671d7f748561",
      "transactionType": "CALL",
      "contractName": "CreditOracle",
      "contractAddress": "0x16253605beef191024c950e00d829e0d410637b7",
      "function": "setOnchainScore(address,uint8,uint8)",
      "arguments": [
        "0xf67FD9e88f7738bB852b0f17056a5b7e7aee1bba",
        "98",
        "5"
      ],
      "transaction": {
        "from": "0xfe213cdfb20ad296433f44bdcf7c2b79aeaf4710",
        "to": "0x16253605beef191024c950e00d829e0d410637b7",
        "gas": "0x2320f",
        "value": "0x0",
        "input": "0xc9d3745a000000000000000000000000f67fd9e88f7738bb852b0f17056a5b7e7aee1bba00000000000000000000000000000000000000000000000000000000000000620000000000000000000000000000000000000000000000000000000000000005",
        "nonce": "0x5",
        "chainId": "0x61"
      },
      "additionalContracts": [],
      "isFixedGasLimit": false
    },
    {
      "hash": "0x5bb0fe23e4a65b7826d5fa0005c2d0fb33fbc36e6b34a3832e14d9be6b66b407",
      "transactionType": "CALL",
      "contractName": "OffchainAttestationRegistry",
      "contractAddress": "0x7574581d7d872f605fd760bb1bacc69a551bf6e0",
      "function": "setAttestation(address,(bytes32,uint8,uint8,uint16,uint8,uint8,uint16,bool,uint256))",
      "arguments": [
        "0xf67FD9e88f7738bB852b0f17056a5b7e7aee1bba",
        "(0xa368dde465e193e04143eccc390de83c7694b3ef562561534dc477c83aa47bd6, 90, 20, 84, 5, 1, 780, true, 0)"
      ],
      "transaction": {
        "from": "0xfe213cdfb20ad296433f44bdcf7c2b79aeaf4710",
        "to": "0x7574581d7d872f605fd760bb1bacc69a551bf6e0",
        "gas": "0x377df",
        "value": "0x0",
        "input": "0xa44cd781000000000000000000000000f67fd9e88f7738bb852b0f17056a5b7e7aee1bbaa368dde465e193e04143eccc390de83c7694b3ef562561534dc477c83aa47bd6000000000000000000000000000000000000000000000000000000000000005a0000000000000000000000000000000000000000000000000000000000000014000000000000000000000000000000000000000000000000000000000000005400000000000000000000000000000000000000000000000000000000000000050000000000000000000000000000000000000000000000000000000000000001000000000000000000000000000000000000000000000000000000000000030c00000000000000000000000000000000000000000000000000000000000000010000000000000000000000000000000000000000000000000000000000000000",
        "nonce": "0x6",
        "chainId": "0x61"
      },
      "additionalContracts": [],
      "isFixedGasLimit": false
    },
    {
      "hash": "0xb48bc598636bad9bec11729cc5498264550032c54c7990d8736889227ea17e4e",
      "transactionType": "CALL",
      "contractName": "CreditOracle",
      "contractAddress": "0x16253605beef191024c950e00d829e0d410637b7",
      "function": "setOnchainScore(address,uint8,uint8)",
      "arguments": [
        "0xf67FD9e88f7738bB852b0f17056a5b7e7aee1bba",
        "98",
        "5"
      ],
      "transaction": {
        "from": "0xfe213cdfb20ad296433f44bdcf7c2b79aeaf4710",
        "to": "0x16253605beef191024c950e00d829e0d410637b7",
        "gas": "0x16fdd",
        "value": "0x0",
        "input": "0xc9d3745a000000000000000000000000f67fd9e88f7738bb852b0f17056a5b7e7aee1bba00000000000000000000000000000000000000000000000000000000000000620000000000000000000000000000000000000000000000000000000000000005",
        "nonce": "0x7",
        "chainId": "0x61"
      },
      "additionalContracts": [],
      "isFixedGasLimit": false
    }
  ],
  "receipts": [
    {
      "status": "0x1",
      "cumulativeGasUsed": "0x11109",
      "logs": [
        {
          "address": "0x159f82bfbbc4d5f7c962b5c4667eca0004030eda",
          "topics": [
            "0x73a19dd210f1a7f902193214c0ee91dd35ee5b4d920cba8d519eca65a7b488ca",
            "0x000000000000000000000000fe213cdfb20ad296433f44bdcf7c2b79aeaf4710"
          ],
          "data": "0x00000000000000000000000000000000000000000000000000b1a2bc2ec5000000000000000000000000000000000000000000000000000000b1a2bc2ec50000",
          "blockHash": "0xa95c5d36a320d2bc901d457b0984f2eab209df0023f99b9adf1d9cc79df40b48",
          "blockNumber": "0x617df7d",
          "blockTimestamp": "0x69e2613c",
          "transactionHash": "0x5bb0fe23e4a65b7826d5fa0005c2d0fb33fbc36e6b34a3832e14d9be6b66b407",
          "transactionIndex": "0x0",
          "logIndex": "0x0",
          "removed": false
        }
      ],
      "logsBloom": "0x00000000000000000000000000000000000000000000000000000000000000000000000000000000000900000000000000000000000000000000000000000000000000000000000000000000000000000000000000000000000000200000000000000000000000000000000000000000000000000000000000000000000000000000000000000000000000000000000000008000000000000000000000000000000000000000000000000000000000002000000000000000000000000000000000000000000000000000000000000000000000000001004000000000000000000000008000000000000000000000000000000000000000000002000000000000",
      "type": "0x2",
      "transactionHash": "0x5bb0fe23e4a65b7826d5fa0005c2d0fb33fbc36e6b34a3832e14d9be6b66b407",
      "transactionIndex": "0x0",
      "blockHash": "0xa95c5d36a320d2bc901d457b0984f2eab209df0023f99b9adf1d9cc79df40b48",
      "blockNumber": "0x617df7d",
      "gasUsed": "0x11109",
      "effectiveGasPrice": "0x7270e00",
      "from": "0xfe213cdfb20ad296433f44bdcf7c2b79aeaf4710",
      "to": "0x159f82bfbbc4d5f7c962b5c4667eca0004030eda",
      "contractAddress": null
    },
    {
      "status": "0x1",
      "cumulativeGasUsed": "0x2915a",
      "logs": [
        {
          "address": "0x16253605beef191024c950e00d829e0d410637b7",
          "topics": [
            "0x0702604218eb0db7076011160dae2a610c153b0a61adbe1d33c8b9dcdef3dc8a",
            "0x000000000000000000000000f67fd9e88f7738bb852b0f17056a5b7e7aee1bba"
          ],
          "data": "0x00000000000000000000000000000000000000000000000000000000000000620000000000000000000000000000000000000000000000000000000000000005",
          "blockHash": "0xa95c5d36a320d2bc901d457b0984f2eab209df0023f99b9adf1d9cc79df40b48",
          "blockNumber": "0x617df7d",
          "blockTimestamp": "0x69e2613c",
          "transactionHash": "0x3554a071d4dbfde2a013187b7d00b75ce96f6760de7ca9e8d599ef0386d3b428",
          "transactionIndex": "0x1",
          "logIndex": "0x1",
          "removed": false
        }
      ],
      "logsBloom": "0x00000000000000000000080000000000000000000000000000000000000000000000000000000000000000000000000000000000000000000000000000000000000000000000000000000000000000000000000000000000000000000000000000000000000000000000000000000000000000000000000000000000000000000000000000000000000000000004000000000000000000000000000200000000000000000000000002000000000000000000000000000000800000000080000000000008000000000000000000000000000000000000000000000000000000000000000000000000008000000400000000000000000000000000000000000000",
      "type": "0x2",
      "transactionHash": "0x3554a071d4dbfde2a013187b7d00b75ce96f6760de7ca9e8d599ef0386d3b428",
      "transactionIndex": "0x1",
      "blockHash": "0xa95c5d36a320d2bc901d457b0984f2eab209df0023f99b9adf1d9cc79df40b48",
      "blockNumber": "0x617df7d",
      "gasUsed": "0x18051",
      "effectiveGasPrice": "0x7270e00",
      "from": "0xfe213cdfb20ad296433f44bdcf7c2b79aeaf4710",
      "to": "0x16253605beef191024c950e00d829e0d410637b7",
      "contractAddress": null
    },
    {
      "status": "0x1",
      "cumulativeGasUsed": "0x51429",
      "logs": [
        {
          "address": "0x7574581d7d872f605fd760bb1bacc69a551bf6e0",
          "topics": [
            "0x75892089102907a6b64e8697a1e74348e90f3906c4f5377c54bed0ebefa20feb",
            "0x000000000000000000000000f67fd9e88f7738bb852b0f17056a5b7e7aee1bba",
            "0xa368dde465e193e04143eccc390de83c7694b3ef562561534dc477c83aa47bd6"
          ],
          "data": "0x000000000000000000000000000000000000000000000000000000000000030c",
          "blockHash": "0xa95c5d36a320d2bc901d457b0984f2eab209df0023f99b9adf1d9cc79df40b48",
          "blockNumber": "0x617df7d",
          "blockTimestamp": "0x69e2613c",
          "transactionHash": "0xc25f35305a8c45ad280f83f625c9b6a6127135e97d9fa23b5ef1671d7f748561",
          "transactionIndex": "0x2",
          "logIndex": "0x2",
          "removed": false
        }
      ],
      "logsBloom": "0x00000010000000000000000000000000000000000020000000000000000000000000000000000000000000000000000000000080000000000000000000000000000000000000000000000200000000000000000000000000000000000000000000000008000000000000000000000000000000000000000000000000000000000000000000000000000000000000000000000000000100000000000200000000000000004000000000000000000000000000000000000000000000000080000000000000000000000000000000000000000000000000000000000000000000000000000000000000008000000000000000000000000200000000000100000000",
      "type": "0x2",
      "transactionHash": "0xc25f35305a8c45ad280f83f625c9b6a6127135e97d9fa23b5ef1671d7f748561",
      "transactionIndex": "0x2",
      "blockHash": "0xa95c5d36a320d2bc901d457b0984f2eab209df0023f99b9adf1d9cc79df40b48",
      "blockNumber": "0x617df7d",
      "gasUsed": "0x282cf",
      "effectiveGasPrice": "0x7270e00",
      "from": "0xfe213cdfb20ad296433f44bdcf7c2b79aeaf4710",
      "to": "0x7574581d7d872f605fd760bb1bacc69a551bf6e0",
      "contractAddress": null
    },
    {
      "status": "0x1",
      "cumulativeGasUsed": "0x61e7d",
      "logs": [
        {
          "address": "0x7574581d7d872f605fd760bb1bacc69a551bf6e0",
          "topics": [
            "0x03e58b4c0149a047fe3e9114cc84548e6a0e6418642d856b7fbae22d00b377d6",
            "0xa368dde465e193e04143eccc390de83c7694b3ef562561534dc477c83aa47bd6"
          ],
          "data": "0x0000000000000000000000000000000000000000000000000000000000000062",
          "blockHash": "0xa95c5d36a320d2bc901d457b0984f2eab209df0023f99b9adf1d9cc79df40b48",
          "blockNumber": "0x617df7d",
          "blockTimestamp": "0x69e2613c",
          "transactionHash": "0xb48bc598636bad9bec11729cc5498264550032c54c7990d8736889227ea17e4e",
          "transactionIndex": "0x3",
          "logIndex": "0x3",
          "removed": false
        },
        {
          "address": "0x16253605beef191024c950e00d829e0d410637b7",
          "topics": [
            "0x0702604218eb0db7076011160dae2a610c153b0a61adbe1d33c8b9dcdef3dc8a",
            "0x000000000000000000000000f67fd9e88f7738bb852b0f17056a5b7e7aee1bba"
          ],
          "data": "0x00000000000000000000000000000000000000000000000000000000000000620000000000000000000000000000000000000000000000000000000000000005",
          "blockHash": "0xa95c5d36a320d2bc901d457b0984f2eab209df0023f99b9adf1d9cc79df40b48",
          "blockNumber": "0x617df7d",
          "blockTimestamp": "0x69e2613c",
          "transactionHash": "0xb48bc598636bad9bec11729cc5498264550032c54c7990d8736889227ea17e4e",
          "transactionIndex": "0x3",
          "logIndex": "0x4",
          "removed": false
        }
      ],
      "logsBloom": "0x00002000000000000000080020000000000800000000000000000000000000000000000000000000000000000000000000000080000000000000000000000000000000000000000000000200000000000000000000000000000000000000000000000008000000000000000000000000000000000000000000000000000000000000000000000000000000000004000000000000000100000000000200000000000000004000000002000000000000000000000000000000800000000080000000000008000000000000000000000000000000000000000000000000000000000000000000000000008000000400000000000000000200000000000000000000",
      "type": "0x2",
      "transactionHash": "0xb48bc598636bad9bec11729cc5498264550032c54c7990d8736889227ea17e4e",
      "transactionIndex": "0x3",
      "blockHash": "0xa95c5d36a320d2bc901d457b0984f2eab209df0023f99b9adf1d9cc79df40b48",
      "blockNumber": "0x617df7d",
      "gasUsed": "0x10a54",
      "effectiveGasPrice": "0x7270e00",
      "from": "0xfe213cdfb20ad296433f44bdcf7c2b79aeaf4710",
      "to": "0x16253605beef191024c950e00d829e0d410637b7",
      "contractAddress": null
    }
  ],
  "libraries": [],
  "pending": [],
  "returns": {},
  "timestamp": 1776443710120,
  "chain": 97,
  "commit": "0cd3b12"
}