{
  "transactions": [
    {
      "hash": null,
      "transactionType": "CALL",
      "contractName": null,
      "contractAddress": "0x159f82bfbbc4d5f7c962b5c4667eca0004030eda",
      "function": "deposit()",
      "arguments": [],
      "transaction": {
        "from": "0xfe213cdfb20ad296433f44bdcf7c2b79aeaf4710",
        "to": "0x159f82bfbbc4d5f7c962b5c4667eca0004030eda",
        "gas": "0x18f50",
        "value": "0xb1a2bc2ec50000",
        "input": "0xd0e30db0",
        "nonce": "0x4",
        "chainId": "0x61"
      },
      "additionalContracts": [],
      "isFixedGasLimit": false
    },
    {
      "hash": null,
      "transactionType": "CALL",
      "contractName": null,
      "contractAddress": "0x16253605beef191024c950e00d829e0d410637b7",
      "function": "setOnchainScore(address,uint8,uint8)",
      "arguments": [
        "0xf67FD9e88f7738bB852b0f17056a5b7e7aee1bba",
        "98",
        "5"
      ],
      "transaction": {
        "from": "0xfe213cdfb20ad296433f44bdcf7c2b79aeaf4710",
        "to": "0x16253605beef191024c950e00d829e0d410637b7",
        "gas": "0x2320f",
        "value": "0x0",
        "input": "0xc9d3745a000000000000000000000000f67fd9e88f7738bb852b0f17056a5b7e7aee1bba00000000000000000000000000000000000000000000000000000000000000620000000000000000000000000000000000000000000000000000000000000005",
        "nonce": "0x5",
        "chainId": "0x61"
      },
      "additionalContracts": [],
      "isFixedGasLimit": false
    },
    {
      "hash": null,
      "transactionType": "CALL",
      "contractName": "OffchainAttestationRegistry",
      "contractAddress": "0x7574581d7d872f605fd760bb1bacc69a551bf6e0",
      "function": "setAttestation(address,(bytes32,uint8,uint8,uint16,uint8,uint8,uint16,bool,uint256))",
      "arguments": [
        "0xf67FD9e88f7738bB852b0f17056a5b7e7aee1bba",
        "(0xa368dde465e193e04143eccc390de83c7694b3ef562561534dc477c83aa47bd6, 90, 20, 84, 5, 1, 780, true, 0)"
      ],
      "transaction": {
        "from": "0xfe213cdfb20ad296433f44bdcf7c2b79aeaf4710",
        "to": "0x7574581d7d872f605fd760bb1bacc69a551bf6e0",
        "gas": "0x377df",
        "value": "0x0",
        "input": "0xa44cd781000000000000000000000000f67fd9e88f7738bb852b0f17056a5b7e7aee1bbaa368dde465e193e04143eccc390de83c7694b3ef562561534dc477c83aa47bd6000000000000000000000000000000000000000000000000000000000000005a0000000000000000000000000000000000000000000000000000000000000014000000000000000000000000000000000000000000000000000000000000005400000000000000000000000000000000000000000000000000000000000000050000000000000000000000000000000000000000000000000000000000000001000000000000000000000000000000000000000000000000000000000000030c00000000000000000000000000000000000000000000000000000000000000010000000000000000000000000000000000000000000000000000000000000000",
        "nonce": "0x6",
        "chainId": "0x61"
      },
      "additionalContracts": [],
      "isFixedGasLimit": false
    },
    {
      "hash": null,
      "transactionType": "CALL",
      "contractName": null,
      "contractAddress": "0x16253605beef191024c950e00d829e0d410637b7",
      "function": "setOnchainScore(address,uint8,uint8)",
      "arguments": [
        "0xf67FD9e88f7738bB852b0f17056a5b7e7aee1bba",
        "98",
        "5"
      ],
      "transaction": {
        "from": "0xfe213cdfb20ad296433f44bdcf7c2b79aeaf4710",
        "to": "0x16253605beef191024c950e00d829e0d410637b7",
        "gas": "0x16fdd",
        "value": "0x0",
        "input": "0xc9d3745a000000000000000000000000f67fd9e88f7738bb852b0f17056a5b7e7aee1bba00000000000000000000000000000000000000000000000000000000000000620000000000000000000000000000000000000000000000000000000000000005",
        "nonce": "0x7",
        "chainId": "0x61"
      },
      "additionalContracts": [],
      "isFixedGasLimit": false
    }
  ],
  "receipts": [],
  "libraries": [],
  "pending": [],
  "returns": {},
  "timestamp": 1776443635679,
  "chain": 97,
  "commit": "0cd3b12"
}